:020000040800F2
:1000000000000220D5110008791000087F100008B8
:10001000851000088B1000089110000800000000F7
:100020000000000000000000000000009710000821
:10003000A510000800000000B3100008C11000085F
:1000400025120008251200082512000825120008B4
:1000500025120008251200082512000825120008A4
:100060002512000825120008251200082512000894
:100070002512000825120008251200082512000884
:100080002512000825120008251200082512000874
:100090002512000825120008251200082512000864
:1000A0002512000825120008251200082512000854
:1000B0002512000825120008251200082512000844
:1000C0002512000825120008251200082512000834
:1000D0002512000825120008251200082512000824
:1000E0002512000825120008251200082512000814
:1000F0002512000825120008251200082512000804
:1001000025120008251200082512000825120008F3
:100110002512000825120008CD100008251200083D
:10012000E110000825120008251200082512000819
:100130002512000800000000000000002512000841
:1001400025120008251200082512000825120008B3
:1001500025120008251200082512000825120008A3
:100160002512000825120008251200082512000893
:1001700025120008251200082512000800000000C2
:100180000000000025120008000000000000000030
:1001900025120008000000000000000025120008E1
:1001A0000000000000000000000000002512000810
:1001B0002512000825120008251200082512000843
:0401C00025120008FC
:1001C40010B5054C237833B9044B13B10448AFF38D
:1001D40000800123237010BD1000002000000000E7
:1001E400DC4A000808B5034B1BB103490348AFF3CD
:1001F400008008BD0000000014000020DC4A000854
:1002040053B94AB9002908BF00281CBF4FF0FF3179
:100214004FF0FF3000F074B9ADF1080C6DE904CE75
:1002240000F006F8DDF804E0DDE9022304B07047CD
:100234002DE9F047089D04468E46002B4DD18A4295
:10024400944669D9B2FA82F252B101FA02F3C2F1C8
:10025400200120FA01F10CFA02FC41EA030E944059
:100264004FEA1C48210CBEFBF8F61FFA8CF708FB7A
:1002740016E341EA034306FB07F199420AD91CEB52
:10028400030306F1FF3080F01F81994240F21C8184
:10029400023E63445B1AA4B2B3FBF8F008FB1033CC
:1002A40044EA034400FB07F7A7420AD91CEB040401
:1002B40000F1FF3380F00A81A74240F207816444D1
:1002C400023840EA0640E41B00261DB1D440002356
:1002D400C5E900433146BDE8F0878B4209D9002DBA
:1002E40000F0EF800026C5E9000130463146BDE844
:1002F400F087B3FA83F6002E4AD18B4202D38242AE
:1003040000F2F980841A61EB030301209E46002D5C
:10031400E0D0C5E9004EDDE702B9FFDEB2FA82F2B1
:10032400002A40F09280A1EB0C014FEA1C471FFA0F
:100334008CFE0126200CB1FBF7F307FB131140EAF6
:1003440001410EFB03F0884208D91CEB010103F1C3
:10035400FF3802D2884200F2CB804346091AA4B285
:10036400B1FBF7F007FB101144EA01440EFB00FE59
:10037400A64508D91CEB040400F1FF3102D2A645BE
:1003840000F2BB800846A4EB0E0440EA03409CE75D
:10039400C6F12007B34022FA07FC4CEA030C20FA0A
:1003A40007F401FA06F31C43F9404FEA1C4900FA2A
:1003B40006F3B1FBF9F8200C1FFA8CFE09FB1811A7
:1003C40040EA014108FB0EF0884202FA06F20BD91A
:1003D4001CEB010108F1FF3A80F08880884240F26A
:1003E4008580A8F102086144091AA4B2B1FBF9F0AE
:1003F40009FB101144EA014100FB0EFE8E4508D9A9
:100404001CEB010100F1FF346CD28E456AD902382D
:10041400614440EA0840A0FB0294A1EB0E01A14212
:10042400C846A64656D353D05DB1B3EB080261EB80
:100434000E0101FA07F722FA06F3F1401F43C5E95A
:10044400007100263146BDE8F087C2F12003D84090
:100454000CFA02FC21FA03F3914001434FEA1C47D2
:100464001FFA8CFEB3FBF7F007FB10360B0C43EAC4
:10047400064300FB0EF69E4204FA02F408D91CEB74
:10048400030300F1FF382FD29E422DD90238634472
:100494009B1B89B2B3FBF7F607FB163341EA034112
:1004A40006FB0EF38B4208D91CEB010106F1FF3861
:1004B40016D28B4214D9023E6144C91A46EA004658
:1004C40038E72E46284605E70646E3E61846F8E6EA
:1004D4004B45A9D2B9EB020864EB0C0E0138A3E733
:1004E4004646EAE7204694E74046D1E7D0467BE714
:1004F400023B614432E7304609E76444023842E78C
:10050400704700BF80B500AF174803F097F9082182
:10051400164803F053FA0346002B01D000F07CFB8D
:100524000021134803F04AFA0346002B01D000F0DF
:1005340073FB04210F4803F041FA0346002B01D05A
:1005440000F06AFB01220C490C4800F0ADFE0346A2
:10055400002B01D000F060FB00222021084802F0AB
:10056400A5F800BF80BD00BFBC0100202C01002005
:1005740004020020740100202C0000203000002020
:100584000004024080B500AF04F008FA00F016F849
:1005940000F0ACFA00F08AFA00F0DCF900F05CFA42
:1005A40000F07EF800F0FCF800F0CCF800F07AF9E6
:1005B40000F006FAFFF7A6FFFEE7000080B594B04E
:1005C40000AF07F11C0334220021184604F07CFA22
:1005D40007F1080300221A605A609A60DA601A610F
:1005E40000237B602C4B1B6C2B4A43F08053136419
:1005F400294B1B6C03F080537B607B6800233B60BA
:10060400264B1B68254A43F440431360234B1B6865
:1006140003F440433B603B680223FB610123BB625C
:100624001023FB6202237B630023BB630823FB6369
:10063400B4233B6402237B640223BB640223FB6474
:1006440007F11C03184602F00FFC0346002B01D0EF
:1006540000F0E2FA02F088F90346002B01D000F022
:10066400DBFA0F23BB600223FB6000233B614FF4E2
:10067400A0537B614FF48053BB6107F1080305214C
:10068400184602F08FFE0346002B01D000F0C4FA96
:1006940000BF5037BD4680BD0038024000700040A6
:1006A40080B584B000AF3B4600221A605A609A605D
:1006B400DA60214B214A1A601F4B4FF480325A6092
:1006C4001D4B00229A601C4B01221A611A4B012215
:1006D4001A76194B002283F82020174B0022DA6285
:1006E400154B174A9A62144B0022DA60124B01220E
:1006F400DA61114B012283F830200F4B01225A6139
:100704000D4800F08EFD0346002B01D000F084FA62
:1007140000233B6001237B600023BB603B461946FA
:10072400054800F0E5FE0346002B01D000F074FA02
:1007340000BF1037BD4680BD3000002000200140BE
:100744000100000F80B500AF124B134A1A60114B21
:10075400124A5A600F4B00229A600E4B0022DA6054
:100764000C4B4FF480421A610A4B00225A61094B28
:1007740000229A61074B0022DA61064B00221A62BA
:10078400044801F0ADFF0346002B01D000F044FA09
:1007940000BF80BDD800002000540040801A06002D
:1007A40080B592B000AF07F1400300221A605A608E
:1007B40007F1240300221A605A609A60DA601A6111
:1007C4005A619A613B1D20220021184604F07CF9ED
:1007D400324B334A1A60314B0B225A602F4B0022A2
:1007E4009A602E4BE022DA602C4B00221A612B4BCC
:1007F40000225A61294B00229A61284803F08EF89E
:100804000346002B01D000F007FA00233B640023C9
:100814007B6407F140031946204802F0DDFE0346DD
:10082400002B01D000F0F8F960237B620023BB6247
:100834000023FB6200233B6300237B630023BB6331
:100844000023FB6307F1240308221946134803F02D
:1008540085FA0346002B01D000F0DEF900237B600B
:100864000023BB600023FB6000233B6100237B610A
:100874004FF40053BB6100233B623B1D19460748FC
:1008840002F026FF0346002B01D000F0C5F903480F
:1008940000F024FB00BF4837BD4680BD2C0100207A
:1008A4000000014080B58AB000AF07F120030022A8
:1008B4001A605A603B1D00221A605A609A60DA601E
:1008C4001A615A619A61224B4FF080421A60204BA0
:1008D4000B225A601E4B00229A601D4BE022DA6004
:1008E4001B4B00221A611A4B00229A61184803F02C
:1008F40015F80346002B01D000F08EF900233B626B
:1009040000237B6207F120031946114802F064FEBC
:100914000346002B01D000F07FF960237B600023A5
:10092400BB600023FB6000237B613B1D042219464E
:10093400074803F013FA0346002B01D000F06CF9CA
:10094400034800F0CBFA00BF2837BD4680BD00BF86
:100954007401002080B582B000AF3B4600221A60CB
:100964005A60154B154A1A60134B0B225A60124BEE
:1009740000229A60104B41F64B52DA600E4B002273
:100984009A610D4802F00AFF0346002B01D000F0E3
:1009940043F900233B6000237B603B46194606482D
:1009A40002F01AFE0346002B01D000F035F900BF17
:1009B4000837BD4680BD00BFBC01002000100040C8
:1009C40080B588B000AF3B1D00221A605A609A605F
:1009D400DA601A615A619A611D4B1E4A1A601C4BF7
:1009E4000B225A601A4B00229A60194BE022DA60FB
:1009F400174B00221A61164B00229A61144802F028
:100A0400CDFE0346002B01D000F006F9104802F099
:100A140085FF0346002B01D000F0FEF860237B60C5
:100A24000023BB600023FB6000237B613B1D00228D
:100A34001946074803F092F90346002B01D000F051
:100A4400EBF8034800F04AFA00BF2037BD4680BDEA
:100A540004020020001C004080B500AF114B124A74
:100A64001A60104B4FF4E1325A600E4B00229A6028
:100A74000C4B0022DA600B4B00221A61094B0C224A
:100A84005A61084B00229A61064B0022DA6105483C
:100A940003F0C3FC0346002B01D000F0BDF800BFF7
:100AA40080BD00BF4C0200200044004080B582B0ED
:100AB40000AF00237B600C4B1B6B0B4A43F4800399
:100AC4001363094B1B6B03F480037B607B68002278
:100AD4000021382001F097F8382001F0B0F800BF69
:100AE4000837BD4680BD00BF0038024080B58AB0DB
:100AF40000AF07F1140300221A605A609A60DA60AA
:100B04001A6100233B61364B1B6B354A43F00403E7
:100B14001363334B1B6B03F004033B613B690023FA
:100B2400FB602F4B1B6B2E4A43F0800313632C4B4B
:100B34001B6B03F08003FB60FB680023BB60284B46
:100B44001B6B274A43F001031363254B1B6B03F014
:100B54000103BB60BB6800237B60214B1B6B204AF5
:100B640043F0020313631E4B1B6B03F002037B6011
:100B74007B68002220211B4801F098FD00222021DF
:100B8400194801F093FD4FF400537B610023BB61CE
:100B94000023FB6107F114031946144801F0DAFB42
:100BA40020237B610123BB610023FB6100233B62A3
:100BB40007F1140319460B4801F0CCFB20237B6199
:100BC4000123BB610023FB6100233B6207F1140393
:100BD4001946054801F0BEFB00BF2837BD4680BD5D
:100BE40000380240000002400004024000080240B5
:100BF40080B483B000AF786000BF0C37BD465DF8A9
:100C0400047B704780B582B000AF786000F082FA50
:100C140000BF0837BD4680BD80B400AF72B600BFC8
:100C2400FEE7000080B582B000AF00237B60104B6C
:100C34005B6C0F4A43F4804353640D4B5B6C03F4C9
:100C440080437B607B6800233B60094B1B6C084A34
:100C540043F080531364064B1B6C03F080533B60DA
:100C64003B68072000F0C4FF00BF0837BD4680BDC5
:100C74000038024080B58AB000AF786007F11403F1
:100C840000221A605A609A60DA601A617B681B68F5
:100C94002F4A934257D100233B612E4B5B6C2D4A64
:100CA40043F4807353642B4B5B6C03F480733B619C
:100CB4003B690023FB60274B1B6B264A43F001036F
:100CC4001363244B1B6B03F00103FB60FB680123DC
:100CD4007B610323BB610023FB6107F11403194605
:100CE4001D4801F037FB1D4B1D4A1A601B4B0022A7
:100CF4005A601A4B00229A60184B0022DA60174B94
:100D04004FF480621A61154B4FF400625A61134B21
:100D14004FF400529A61114B4FF48072DA610F4B19
:100D240000221A620D4B00225A620C4800F0A2FF06
:100D34000346002B01D0FFF76FFF7B68074A9A63D5
:100D4400064A7B68936300BF2837BD4680BD00BF59
:100D540000200140003802400000024078000020DA
:100D64001064024080B58AB000AF786007F11403C4
:100D740000221A605A609A60DA601A617B681B6804
:100D8400194A93422CD100233B61184B1B6B174A21
:100D940043F002031363154B1B6B03F002033B6127
:100DA4003B694FF440737B611223BB610023FB61F9
:100DB40003233B6204237B6207F1140319460C48A6
:100DC40001F0C8FA0023FB60084B1B6C074A43F48C
:100DD40000131364054B1B6C03F40013FB60FB68E6
:100DE40000BF2837BD4680BD005400400038024093
:100DF4000004024080B485B000AF78607B681B6853
:100E0400154A93420ED10023FB60144B5B6C134ACA
:100E140043F001035364114B5B6C03F00103FB606B
:100E2400FB6812E07B681B68B3F1804F0DD100238F
:100E3400BB600A4B1B6C094A43F001031364074B64
:100E44001B6C03F00103BB60BB6800BF1437BD46D5
:100E54005DF8047B704700BF000001400038024089
:100E640080B584B000AF78607B681B68184A9342F1
:100E740016D10023FB60174B1B6C164A43F010037A
:100E84001364144B1B6C03F01003FB60FB6800221B
:100E94000021362000F0B7FE362000F0D0FE12E02C
:100EA4007B681B680C4A93420DD10023BB60094B3D
:100EB4001B6C084A43F080031364064B1B6C03F05D
:100EC4008003BB60BB6800BF1037BD4680BD00BF58
:100ED4000010004000380240001C004080B58AB079
:100EE40000AF786007F1140300221A605A609A6018
:100EF400DA601A617B681B68364A93421FD100236B
:100F04003B61354B1B6B344A43F001031363324B93
:100F14001B6B03F001033B613B694FF480637B610E
:100F24000223BB610023FB6100233B6201237B623C
:100F340007F114031946294801F00CFA46E07B68CE
:100F44001B68B3F1804F1ED10023FB60224B1B6B47
:100F5400214A43F0010313631F4B1B6B03F001038E
:100F6400FB60FB6802237B610223BB610023FB61FE
:100F740000233B6201237B6207F1140319461748DF
:100F840001F0E8F922E07B681B68154A93421DD101
:100F94000023BB60104B1B6B0F4A43F00103136328
:100FA4000D4B1B6B03F00103BB60BB6840237B61EB
:100FB4000223BB610023FB6100233B6209237B62A4
:100FC40007F114031946054801F0C4F900BF283796
:100FD400BD4680BD000001400038024000000240D0
:100FE400001C004080B58AB000AF786007F114039C
:100FF40000221A605A609A60DA601A617B681B6882
:10100400194A93422BD100233B61184B1B6C174A9E
:1010140043F400331364154B1B6C03F400333B613E
:101024003B690023FB60114B1B6B104A43F0010327
:1010340013630E4B1B6B03F00103FB60FB680C2373
:101044007B610223BB610023FB6103233B62072313
:101054007B6207F114031946054801F07BF900BFD0
:101064002837BD4680BD00BF004400400038024020
:101074000000024080B400AFFEE780B400AFFEE79A
:1010840080B400AFFEE780B400AFFEE780B400AFE9
:10109400FEE780B400AF00BFBD465DF8047B704737
:1010A40080B400AF00BFBD465DF8047B704780B4D8
:1010B40000AF00BFBD465DF8047B704780B500AF4C
:1010C40003F0BEFC00BF80BD80B500AF024802F053
:1010D4003DFD00BF80BD00BFBC01002080B500AF56
:1010E400024800F0CDFE00BF80BD00BF78000020A4
:1010F40080B400AF064BD3F88830054A43F470033C
:10110400C2F8883000BFBD465DF8047B704700BF5D
:1011140000ED00E080B500AF4FF40051264801F027
:10112400ADFA0346002B13D1244B1B68B3F5FA7FA9
:101134000EDD234B1B680133214A1360204B1B68CF
:10114400022B02DD1E4B00221A601C4B00221A6087
:101154001A4B1B680133194A13601A4B1B6801337D
:10116400184A1360174B1B68B3F5FA7F21D1164B4D
:101174001B78002B05D001222021144801F096FA97
:1011840004E000222021114801F090FA0E4B1B7854
:10119400002B14BF01230023DBB283F00103DBB275
:1011A40003F00103DAB2084B1A70064B00221A60EE
:1011B40000E000BF00BF80BD000802409402002090
:1011C4009802002090020020040000200000024049
:1011D400DFF834D00D480E490E4A002302E0D458FB
:1011E400C4500433C4188C42F9D30B4A0B4C00236B
:1011F40001E013600432A242FBD3FFF779FF03F04E
:101204003FFCFFF7BFF970470000022000000020F8
:1012140010000020244B000810000020A002002031
:10122400FEE780B584B000AF78600023FB737B6871
:10123400002B01D1012333E07B681B6C002B09D107
:101244007868FFF717FD7B6800225A647B680022E8
:1012540083F83C207B681B6C03F01003002B18D12F
:101264007B681B6C23F4885323F0020343F00202CF
:101274007B681A64786800F06DFA7B6800225A640F
:101284007B681B6C23F0030343F001027B681A6440
:1012940001E00123FB737B68002283F83C20FB7B85
:1012A40018461037BD4680BD80B586B000AFF860E3
:1012B400B9607A6000233B61FB6893F83C30012BF2
:1012C40001D10223E9E0FB68012283F83C20FB689A
:1012D4001B689B6803F00103012B18D0FB681B6893
:1012E4009A68FB681B6842F001029A606D4B1B68A8
:1012F4006D4AA2FB03239A0C13465B0013443B6123
:1013040002E03B69013B3B613B69002BF9D1FB687F
:101314001B689B6803F48073B3F5807F07D1FB6877
:101324001B689A68FB681B6822F480729A60FB68E9
:101334001B689B6803F00103012B40F0A180FB684C
:101344001B6C23F4E06323F0010343F48072FB6815
:101354001A64FB681B685B6803F48063002B07D086
:10136400FB681B6C23F4405343F48052FB681A64FB
:10137400FB681B6C03F48053B3F5805F06D1FB68F4
:101384005B6C23F00602FB685A6402E0FB680022EF
:101394005A64FB68002283F83C20444B7B61FB6861
:1013A4009B6B434ADA63FB689B6B424A1A64FB6893
:1013B4009B6B414ADA64FB681B686FF022021A6077
:1013C400FB681B685A68FB681B6842F080625A60BD
:1013D400FB681B689A68FB681B6842F480729A6019
:1013E400FB68986BFB681B684C331946BA687B68CA
:1013F40000F0EEFC7B695B6803F01F03002B2AD12D
:10140400FB681B682D4A934215D0FB681B682C4A65
:10141400934205D1254B5B6803F01F03002B0AD0D0
:10142400FB681B68274A934236D1204B5B6803F064
:101434001003002B30D1FB681B689B6803F04053FA
:10144400002B29D1FB681B689A68FB681B6842F073
:1014540080429A6020E0FB681B68184A93421BD1C3
:10146400FB681B689B6803F04053002B14D1FB6896
:101474001B689A68FB681B6842F080429A600BE024
:10148400FB681B6C43F01002FB681A64FB685B6C1E
:1014940043F00102FB685A64002318461837BD461E
:1014A40080BD00BF0000002083DE1B4300230140F9
:1014B400511900080B1A0008271A000800200140DF
:1014C400002101400022014080B483B000AF786065
:1014D40000BF0C37BD465DF8047B704780B483B011
:1014E40000AF786000BF0C37BD465DF8047B7047E1
:1014F40080B485B000AF786039600023BB607B683E
:1015040093F83C30012B01D1022313E17B680122C3
:1015140083F83C203B681B68092B25D97B681B6832
:10152400D9683B681B689BB21A4613465B00134498
:101534001E3B072202FA03F3DA437B681B680A4066
:10154400DA607B681B68D9683B689A683B681B68EB
:101554009BB2184603465B0003441E3B9A407B68DB
:101564001B680A43DA6022E07B681B6819693B68E0
:101574001B689BB21A4613465B001344072202FA07
:1015840003F3DA437B681B680A401A617B681B68B3
:1015940019693B689A683B681B689BB21846034606
:1015A4005B0003449A407B681B680A431A613B68EA
:1015B4005B68062B24D87B681B68596B3B685A68A8
:1015C40013469B001344053B1F2202FA03F3DA433C
:1015D4007B681B680A405A637B681B68596B3B68CD
:1015E4001B689BB218463B685A6813469B00134419
:1015F400053B00FA03F27B681B680A435A634CE01C
:101604003B685B680C2B24D87B681B68196B3B68B0
:101614005A6813469B001344233B1F2202FA03F328
:10162400DA437B681B680A401A637B681B68196B82
:101634003B681B689BB218463B685A6813469B007C
:101644001344233B00FA03F27B681B680A431A63C2
:1016540023E07B681B68D96A3B685A6813469B0081
:101664001344413B1F2202FA03F3DA437B681B68ED
:101674000A40DA627B681B68D96A3B681B689BB2C4
:1016840018463B685A6813469B001344413B00FAD2
:1016940003F27B681B680A43DA62294BFB607B68B0
:1016A4001B68284A93420FD13B681B68122B0BD14D
:1016B400FB685B6823F40002FB685A60FB685B68A4
:1016C40043F48002FB685A607B681B681D4A93429E
:1016D4002BD13B681B681C4A934203D03B681B68B0
:1016E400112B22D1FB685B6823F48002FB685A60EB
:1016F400FB685B6843F40002FB685A603B681B6844
:10170400114A934211D1114B1B68114AA2FB0323C6
:101714009A0C13469B0013445B00BB6002E0BB6859
:10172400013BBB60BB68002BF9D17B68002283F8C6
:101734003C20002318461437BD465DF8047B7047EF
:10174400002301400020014012000010000000208E
:1017540083DE1B4380B485B000AF7860794BFB60B7
:10176400FB685B6823F44032FB685A60FB685A6884
:101774007B685B681A43FB685A607B681B685A681D
:101784007B681B6822F480725A607B681B68596806
:101794007B681B691A027B681B680A435A607B6872
:1017A4001B685A687B681B6822F040725A607B6829
:1017B4001B6859687B689A687B681B680A435A608F
:1017C4007B681B689A687B681B6822F400629A60D5
:1017D4007B681B6899687B68DA687B681B680A43C6
:1017E4009A607B689B6A584A934222D07B681B6844
:1017F4009A687B681B6822F070629A607B681B6839
:1018040099687B689A6A7B681B680A439A607B685C
:101814001B689A687B681B6822F040529A607B6858
:101824001B6899687B68DA6A7B681B680A439A605C
:101834000FE07B681B689A687B681B6822F0706203
:101844009A607B681B689A687B681B6822F0405228
:101854009A607B681B689A687B681B6822F00202A6
:101864009A607B681B6899687B681B7E5A007B685A
:101874001B680A439A607B6893F82030002B1BD0C6
:101884007B681B685A687B681B6842F400625A6074
:101894007B681B685A687B681B6822F460425A6044
:1018A4007B681B6859687B685B6A013B5A037B68E9
:1018B4001B680A435A6007E07B681B685A687B68A8
:1018C4001B6822F400625A607B681B68DA6A7B68D2
:1018D4001B6822F47002DA627B681B68D96A7B6831
:1018E400DB69013B1A057B681B680A43DA627B6883
:1018F4001B689A687B681B6822F400729A607B6894
:101904001B6899687B6893F830305A027B681B68BF
:101914000A439A607B681B689A687B681B6822F498
:1019240080629A607B681B6899687B685B699A022D
:101934007B681B680A439A6000BF1437BD465DF894
:10194400047B7047002301400100000F80B584B080
:1019540000AF78607B689B6BFB60FB681B6C03F0DB
:101964005003002B3CD1FB681B6C43F40072FB68F2
:101974001A64FB681B689B6803F04053002B2BD14F
:10198400FB681B7E002B27D1FB681B68DB6A03F412
:101994007003002B06D0FB681B689B6803F480630C
:1019A400002B19D1FB681B685A68FB681B6822F07E
:1019B40020025A60FB681B6C23F48072FB681A6473
:1019C400FB681B6C03F48053002B05D1FB681B6C74
:1019D40043F00102FB681A64F868FFF709F90EE0A6
:1019E400FB681B6C03F01003002B03D0F868FFF7AF
:1019F40075FD04E0FB689B6BDB6C7868984700BF5F
:101A04001037BD4680BD80B584B000AF78607B6878
:101A14009B6BFB60F868FFF757FD00BF1037BD46AE
:101A240080BD80B584B000AF78607B689B6BFB6041
:101A3400FB6840221A64FB685B6C43F00402FB6899
:101A44005A64F868FFF74AFD00BF1037BD4680BDF1
:101A540080B485B000AF78607B6803F00703FB6057
:101A64000C4BDB68BB60BA684FF6FF031340BB60E6
:101A7400FB681A02BB68134343F0BF6343F40033AB
:101A8400BB60044ABB68D36000BF1437BD465DF831
:101A9400047B704700ED00E080B400AF044BDB68CA
:101AA4001B0A03F007031846BD465DF8047B704724
:101AB40000ED00E080B483B000AF0346FB7197F9FA
:101AC4000730002B0BDBFB7903F01F02074997F962
:101AD40007305B09012000FA02F241F8232000BF1D
:101AE4000C37BD465DF8047B704700BF00E100E0A1
:101AF40080B483B000AF03463960FB7197F90730B7
:101B0400002B0ADB3B68DAB20C4997F90730120163
:101B1400D2B20B4483F800230AE03B68DAB20849E6
:101B2400FB7903F00F03043B1201D2B20B441A7683
:101B340000BF0C37BD465DF8047B704700E100E050
:101B440000ED00E080B489B000AFF860B9607A605D
:101B5400FB6803F00703FB61FB69C3F10703042B74
:101B640028BF0423BB61FB690433062B02D9FB693C
:101B7400033B00E000237B614FF0FF32BB6902FAB4
:101B840003F3DA43BB681A407B699A404FF0FF3194
:101B94007B6901FA03F3D9437B680B40134318466E
:101BA4002437BD465DF8047B7047000080B582B0E1
:101BB40000AF78607B68013BB3F1807F01D30123E0
:101BC4000FE00A4A7B68013B53600F214FF0FF305E
:101BD400FFF78EFF054B00229A60044B07221A6020
:101BE400002318460837BD4680BD00BF10E000E062
:101BF40080B582B000AF78607868FFF729FF00BF36
:101C04000837BD4680BD80B586B000AF0346B960D5
:101C14007A60FB7300237B61FFF73EFF78617A688B
:101C2400B9687869FFF78EFF024697F90F301146BD
:101C34001846FFF75DFF00BF1837BD4680BD80B56D
:101C440082B000AF0346FB7197F907301846FFF7DF
:101C540031FF00BF0837BD4680BD80B582B000AFFC
:101C640078607868FFF7A2FF034618460837BD4638
:101C740080BD000080B586B000AF786000237B6132
:101C840002F0F2FE38617B68002B01D1012399E058
:101C94007B68022283F835207B68002283F8342095
:101CA4007B681B681A687B681B6822F001021A6053
:101CB4000FE002F0D9FE02463B69D31A052B08D97E
:101CC4007B6820225A657B68032283F8352003232E
:101CD40078E07B681B681B6803F00103002BE8D1E4
:101CE4007B681B681B687B617A69384B13407B6196
:101CF4007B685A687B689B681A437B68DB681A4375
:101D04007B681B691A437B685B691A437B689B6920
:101D14001A437B68DB691A437B681B6A13437A693D
:101D240013437B617B685B6A042B07D17B68DA6AA7
:101D34007B681B6B13437A6913437B617B681B6865
:101D44007A691A607B681B685B697B617B6923F035
:101D540007037B617B685B6A7A6913437B617B68F9
:101D64005B6A042B17D17B689B6A7A6913437B6196
:101D74007B68DB6A002B0ED0786800F06FFA0346AC
:101D8400002B08D07B6840225A657B68012283F8C7
:101D94003520012316E07B681B687A695A617868EC
:101DA40000F026FA0346FB607B68DB6D3F229A4015
:101DB400FB689A607B6800225A657B68012283F87D
:101DC4003520002318461837BD4680BD3F8010F0EB
:101DD40080B586B000AFF860B9607A603B600023DC
:101DE400FB75FB689B6D3B61FB6893F83430012BFA
:101DF40001D1022340E0FB68012283F83420FB6810
:101E040093F83530DBB2012B2FD1FB68022283F823
:101E14003520FB6800225A653B687A68B968F8681F
:101E240000F0B8F9FB68DB6D3F229A403B699A6089
:101E3400FB681B681A68FB681B6842F016021A608C
:101E4400FB681B6C002B07D0FB681B681A68FB68D7
:101E54001B6842F008021A60FB681B681A68FB687A
:101E64001B6842F001021A6005E0FB68002283F857
:101E740034200223FB75FB7D18461837BD4680BD10
:101E840080B586B000AF78600023BB608E4B1B68C2
:101E94008E4AA2FB03239B0A7B617B689B6D3B619B
:101EA4003B691B68FB607B68DB6D08229A40FB681A
:101EB4001340002B1AD07B681B681B6803F00403D3
:101EC400002B13D07B681B681A687B681B6822F0A0
:101ED40004021A607B68DB6D08229A403B699A60B1
:101EE4007B685B6D43F001027B685A657B68DB6D40
:101EF40001229A40FB681340002B12D07B681B68B8
:101F04005B6903F08003002B0BD07B68DB6D01223F
:101F14009A403B699A607B685B6D43F002027B6880
:101F24005A657B68DB6D04229A40FB681340002BE2
:101F340012D07B681B681B6803F00203002B0BD0D4
:101F44007B68DB6D04229A403B699A607B685B6D19
:101F540043F004027B685A657B68DB6D10229A406B
:101F6400FB681340002B43D07B681B681B6803F09D
:101F74000803002B3CD07B68DB6D10229A403B6940
:101F84009A607B681B681B6803F48023002B18D0BD
:101F94007B681B681B6803F40023002B08D17B6853
:101FA4001B6C002B24D07B681B6C786898471FE05F
:101FB4007B689B6C002B1BD07B689B6C7868984774
:101FC40016E07B681B681B6803F48073002B07D141
:101FD4007B681B681A687B681B6822F008021A6019
:101FE4007B681B6C002B03D07B681B6C786898475C
:101FF4007B68DB6D20229A40FB681340002B00F0C5
:102004008F807B681B681B6803F01003002B00F0B3
:1020140087807B68DB6D20229A403B699A607B68ED
:1020240093F83530DBB2052B36D17B681B681A6810
:102034007B681B6822F016021A607B681B685A6969
:102044007B681B6822F080025A617B681B6C002B42
:1020540003D17B689B6C002B07D07B681B681A68D4
:102064007B681B6822F008021A607B68DB6D3F22E4
:102074009A403B699A607B68012283F835207B682B
:10208400002283F834207B681B6D002B7ED07B6894
:102094001B6D7868984779E07B681B681B6803F4BC
:1020A4008023002B1DD07B681B681B6803F400236E
:1020B400002B0DD17B685B6C002B31D07B685B6C93
:1020C400786898472CE000BF00000020B5814E1BC3
:1020D4007B68DB6B002B23D07B68DB6B78689847CD
:1020E4001EE07B681B681B6803F48073002B0FD110
:1020F4007B681B681A687B681B6822F010021A60F0
:102104007B68012283F835207B68002283F8342021
:102114007B68DB6B002B03D07B68DB6B78689847AC
:102124007B685B6D002B32D07B685B6D03F0010331
:10213400002B22D07B68052283F835207B681B683E
:102144001A687B681B6822F001021A60BB680133BD
:10215400BB607A699A4207D37B681B681B6803F0EB
:102164000103002BF2D100E000BF7B68012283F859
:1021740035207B68002283F834207B68DB6C002BDD
:1021840005D07B68DB6C7868984700E000BF18379F
:10219400BD4680BD80B485B000AFF860B9607A6098
:1021A4003B60FB681B681A68FB681B6822F480228A
:1021B4001A60FB681B683A685A60FB689B68402B8E
:1021C40008D1FB681B687A689A60FB681B68BA6868
:1021D400DA6007E0FB681B68BA689A60FB681B68F2
:1021E4007A68DA6000BF1437BD465DF8047B704737
:1021F40080B485B000AF78607B681B68DBB2103BAD
:10220400144AA2FB03231B09FB60134AFB68134413
:102214001B781A467B68DA65FB68032B09D97B684F
:102224001B6823F47F7323F003031A1D7B689A65EC
:1022340007E07B681B6823F47F7323F003037A6849
:1022440093657B689B6D18461437BD465DF8047B27
:10225400704700BFABAAAAAA0C4B000880B485B093
:1022640000AF78600023FB737B689B6ABB607B686C
:102274009B69002B1FD1BB68032B56D801A252F8CF
:1022840023F000BF99220008AB220008992200081D
:102294002F2300087B68DB6A03F08073002B46D091
:1022A4000123FB7343E07B68DB6AB3F1C07F40D159
:1022B4000123FB733DE07B689B69B3F5005F21D18B
:1022C400BB68032B37D801A252F823F0E12200089F
:1022D400E7220008E1220008F92200080123FB7329
:1022E40030E07B68DB6A03F08073002B25D0012388
:1022F400FB7322E07B68DB6AB3F1C07F1FD101234B
:10230400FB731CE0BB68022B03D9BB68032B03D00F
:1023140018E00123FB7315E07B68DB6A03F080732C
:10232400002B0ED00123FB730BE000BF0AE000BFBB
:1023340008E000BF06E000BF04E000BF02E000BF09
:1023440000E000BFFB7B18461437BD465DF8047BF4
:10235400704700BF80B489B000AF78603960002353
:102364007B6100233B610023BB610023FB6165E1CA
:102374000122FB6902FA03F37B613B681B687A69FB
:1023840013403B613A697B699A4240F054813B684F
:102394005B6803F00303012B05D03B685B6803F023
:1023A4000303022B30D17B689B68BB61FB695B0034
:1023B400032202FA03F3DB43BA691340BB613B68AF
:1023C400DA68FB695B0002FA03F3BA691343BB6181
:1023D4007B68BA699A607B685B68BB610122FB69B0
:1023E40002FA03F3DB43BA691340BB613B685B68E1
:1023F4001B0903F00102FB6902FA03F3BA691343F0
:10240400BB617B68BA695A603B685B6803F003038D
:10241400032B17D07B68DB68BB61FB695B0003227D
:1024240002FA03F3DB43BA691340BB613B689A6861
:10243400FB695B0002FA03F3BA691343BB617B686F
:10244400BA69DA603B685B6803F00303022B23D1AB
:10245400FB69DA087B68083253F82230BB61FB69F8
:1024640003F007039B000F2202FA03F3DB43BA696C
:102474001340BB613B681A69FB6903F007039B00C7
:1024840002FA03F3BA691343BB61FB69DA087B6898
:102494000832B96943F822107B681B68BB61FB6989
:1024A4005B00032202FA03F3DB43BA691340BB6106
:1024B4003B685B6803F00302FB695B0002FA03F309
:1024C400BA691343BB617B68BA691A603B685B688D
:1024D40003F44033002B00F0AE800023FB605D4B1F
:1024E4005B6C5C4A43F4804353645A4B5B6C03F467
:1024F4008043FB60FB68584AFB699B08023352F82F
:102504002330BB61FB6903F003039B000F2202FA33
:1025140003F3DB43BA691340BB617B684F4A9342C0
:1025240025D07B684E4A93421FD07B684D4A934224
:1025340019D07B684C4A934213D07B684B4A934230
:102544000DD07B684A4A934207D07B68494A93423C
:1025540001D106230CE007230AE0052308E0042345
:1025640006E0032304E0022302E0012300E0002349
:10257400FA6902F0030292009340BA691343BB6103
:102584003549FB699B080233BA6941F823203A4B69
:102594009B68BB613B69DB43BA691340BB613B6821
:1025A4005B6803F48013002B03D0BA693B691343BF
:1025B400BB61314ABB6993602F4BDB68BB613B69EC
:1025C400DB43BA691340BB613B685B6803F40013E7
:1025D400002B03D0BA693B691343BB61264ABB692C
:1025E400D360254B5B68BB613B69DB43BA6913402D
:1025F400BB613B685B6803F40033002B03D0BA690A
:102604003B691343BB611C4ABB6953601A4B1B688B
:10261400BB613B69DB43BA691340BB613B685B68E0
:1026240003F48033002B03D0BA693B691343BB61C5
:10263400114ABB691360FB690133FB61FB690F2B12
:102644007FF696AE00BF00BF2437BD465DF8047B1D
:10265400704700BF003802400038014000000240CB
:102664000004024000080240000C02400010024036
:102674000014024000180240003C014080B485B0C0
:1026840000AF78600B467B807B681A697B881340B7
:10269400002B02D00123FB7301E00023FB73FB7BBF
:1026A40018461437BD465DF8047B704780B483B088
:1026B40000AF78600B467B8013467B707B78002BE1
:1026C40003D07A887B689A6103E07B881A047B686C
:1026D4009A6100BF0C37BD465DF8047B704700006B
:1026E40080B584B000AF78607B68002B01D10123F2
:1026F4002BE17B6893F83D30DBB2002B06D17B687D
:10270400002283F83C207868FEF72CFB7B682422A7
:1027140083F83D207B681B681A687B681B6822F07D
:1027240001021A607B681B681A687B681B6842F4A4
:1027340000421A607B681B681A687B681B6822F475
:1027440000421A6000F020FFF8607B685B68814AF1
:10275400934207D8FB68804A934294BF0123002325
:10276400DBB206E0FB687D4A934294BF0123002359
:10277400DBB2002B01D00123E7E0FB68784AA2FB1F
:1027840003239B0CBB607B681B685B6823F03F01E1
:102794007B681B68BA680A435A607B681B681B6ABB
:1027A40023F03F017B685B686A4A934202D8BB68A6
:1027B400013309E0BB684FF4967202FB03F3694AE4
:1027C400A2FB03239B0901337A6812680B4313624B
:1027D4007B681B68DB6923F44F4222F0FF027B68AD
:1027E4005B685C498B4219D8FB68591E7B685B683F
:1027F4005B00B1FBF3F3591C40F6FC730B40002B58
:102804000AD0FB68591E7B685B685B00B1FBF3F37D
:102814000133C3F30B0351E004234FE07B689B684F
:10282400002B11D1FB68581E7B6859680B465B006E
:102834000B44B0FBF3F30133C3F30B03002B0CBFC6
:1028440001230023DBB212E0FB68581E7B68596841
:102854000B469B000B4499000B44B0FBF3F301338C
:10286400C3F30B03002B0CBF01230023DBB2002BAB
:1028740001D0012322E07B689B68002B0ED1FB680A
:10288400581E7B6859680B465B000B44B0FBF3F39E
:102894000133C3F30B0343F400430FE0FB68581EFA
:1028A4007B6859680B469B000B4499000B44B0FBB2
:1028B400F3F30133C3F30B0343F44043796809682A
:1028C4001343CB617B681B681B6823F0C0017B68E2
:1028D400DA697B681B6A1A437B681B680A431A60BF
:1028E4007B681B689B6823F4034323F0FF037A6827
:1028F40011697A68D26811437A6812680B4393604D
:102904007B681B68DB6823F0FF017B685A697B687E
:102914009B691A437B681B680A43DA607B681B68FF
:102924001A687B681B6842F001021A607B68002207
:102934001A647B68202283F83D207B6800221A6396
:102944007B68002283F83E20002318461037BD46DA
:1029540080BD00BFA08601007F841E00FF083D00EB
:1029640083DE1B43D34D621080B582B000AF0023D9
:102974007B6000233B60204B1B6C1F4A43F0805359
:1029840013641D4B1B6C03F080533B603B681B4B73
:1029940001221A6002F068F8786009E002F064F835
:1029A40002467B68D31AB3F57A7F01D903231FE06B
:1029B400134B5B6803F48033B3F5803FEED1114BC6
:1029C40001221A6002F050F8786009E002F04CF835
:1029D40002467B68D31AB3F57A7F01D9032307E053
:1029E400074B5B6803F40033B3F5003FEED10023DB
:1029F40018460837BD4680BD0038024040000E42EC
:102A04000070004044000E422DE9B04FAEB000AF5C
:102A14000023C7F8AC300023C7F8B4300023C7F84C
:102A2400A8300023C7F8A4300023C7F8B030CB4B3C
:102A34009B6803F00C030C2B00F2068201A252F8EF
:102A440023F000BF7D2A00084D2E00084D2E0008FB
:102A54004D2E0008852A00084D2E00084D2E000832
:102A64004D2E00088D2A00084D2E00084D2E00081A
:102A74004D2E00087D2C0008B94BC7F8B030E7E1B3
:102A8400B84BC7F8B030E3E1B44B5B6803F03F03E5
:102A9400C7F8AC30B14B5B6803F48003002B71D0F2
:102AA400AE4B5B689B090022C7F89830C7F89C209E
:102AB400D7F89830C3F30803C7F890300023C7F859
:102AC4009430D7E9244522462B464FF000004FF0BE
:102AD4000001590141EAD261500102460B462146E8
:102AE400511A3964294663EB01037B644FF00002F9
:102AF4004FF00003D7E9108949468B01414643EA68
:102B0400916341468A014146511AB963494663EBD0
:102B14000103FB634FF000024FF00003D7E90E8975
:102B24004946CB00414643EA51734146CA00104628
:102B34001946034622469B183B632B460A4642EB42
:102B440003037B634FF000024FF00003D7E90C4509
:102B540029464B02214643EAD15321464A021046F4
:102B64001946D7F8AC300022C7F88830C7F88C2053
:102B7400D7E92223FDF744FB02460B461346C7F868
:102B8400B43067E0754B5B689B090022C7F880305E
:102B9400C7F88420D7F88030C3F30803BB67002349
:102BA400FB67D7E91E4522462B464FF000004FF045
:102BB4000001590141EAD261500102460B46214607
:102BC400511AB962294663EB0103FB624FF000021C
:102BD4004FF00003D7E90A8949468B01414643EA8D
:102BE400916341468A014146B2EB010A494663EBCF
:102BF400010B4FF000024FF000034FEACB0343EA0E
:102C04005A734FEACA0292469B4623461AEB0303C1
:102C14003B622B464BEB03037B624FF000024FF009
:102C24000003D7E9084529468B02214643EA91531C
:102C340021468A0210461946D7F8AC3000223B6779
:102C44007A67D7E91C23FDF7DBFA02460B461346E5
:102C5400C7F8B430414B5B681B0C03F0030301332A
:102C64005B00C7F8A830D7F8B420D7F8A830B2FB77
:102C7400F3F3C7F8B030EBE0384B5B6803F03F0385
:102C8400C7F8AC30354B5B6803F48003002B6BD082
:102C9400324B5B689B090022BB66FA66BB6EC3F3CA
:102CA40008033B6600237B66D7E9184522462B467A
:102CB4004FF000004FF00001590141EAD261500188
:102CC40002460B462146511AB961294663EB0103BA
:102CD400FB614FF000024FF00003D7E906AB594601
:102CE4008B01514643EA916351468A015146B2EB46
:102CF4000108594663EB01094FF000024FF000034D
:102D04004FEAC90343EA58734FEAC802904699460A
:102D1400234618EB03033B612B4649EB03037B611A
:102D24004FF000024FF00003D7E9044529464B0257
:102D3400214643EAD15321464A0210461946D7F8A0
:102D4400AC300022BB65FA65D7E91623FDF758FAC3
:102D540002460B461346C7F8B43065E0003802401B
:102D64000024F40000127A003D4B5B689B090022AA
:102D740018461146C0F308033B6500237B65D7E979
:102D8400148942464B464FF000004FF000015901B0
:102D940041EAD261500102460B464146511AB960DC
:102DA400494663EB0103FB604FF000024FF0000360
:102DB400D7E902AB59468B01514643EA9163514628
:102DC4008A015146541A594663EB01054FF000023B
:102DD4004FF00003EB0043EA5473E20014461D462F
:102DE4004346E3183B604B4645EB03037B604FF0DF
:102DF40000024FF00003D7E9004529468B02214623
:102E040043EA915321468A0210461946D7F8AC305A
:102E14000022BB64FA64D7E91223FDF7F1F90246F4
:102E24000B461346C7F8B4300D4B5B681B0F03F019
:102E34000703C7F8A430D7F8B420D7F8A430B2FBFE
:102E4400F3F3C7F8B03003E0064BC7F8B03000BF67
:102E5400D7F8B0301846B837BD46BDE8B08F00BFCC
:102E6400003802400024F40080B586B000AF7860DA
:102E74007B68002B01D101238DE27B681B6803F082
:102E84000103002B00F08380944B9B6803F00C0338
:102E9400042B19D0914B9B6803F00C03082B06D12B
:102EA4008E4B5B6803F48003B3F5800F0CD08B4B1F
:102EB4009B6803F00C030C2B12D1884B5B6803F462
:102EC4008003B3F5800F0BD1844B1B6803F40033EC
:102ED400002B5BD07B685B68002B57D101235AE23F
:102EE4007B685B68B3F5803F06D17C4B1B687B4AEB
:102EF40043F4803313601DE07B685B68B3F5A02F57
:102F04000CD1764B1B68754A43F480231360734BD2
:102F14001B68724A43F4803313600BE06F4B1B68E9
:102F24006E4A23F4803313606C4B1B686B4A23F4A2
:102F3400802313607B685B68002B13D001F094FD41
:102F4400386108E001F090FD02463B69D31A642B16
:102F540001D903231FE2614B1B6803F40033002BE8
:102F6400F0D014E001F080FD386108E001F07CFD50
:102F740002463B69D31A642B01D903230BE2574B56
:102F84001B6803F40033002BF0D100E000BF7B6822
:102F94001B6803F00203002B6FD0504B9B6803F0B7
:102FA4000C03002B17D04D4B9B6803F00C03082B2C
:102FB40005D14A4B5B6803F48003002B0BD0474BCD
:102FC4009B6803F00C030C2B1CD1444B5B6803F48B
:102FD4008003002B16D1414B1B6803F00203002B26
:102FE40005D07B68DB68012B01D00123D3E13B4B87
:102FF4001B6823F0F8027B681B69DB003749134325
:103004000B603AE07B68DB68002B20D0344B012254
:103014001A6001F029FD386108E001F025FD02463F
:103024003B69D31A022B01D90323B4E12B4B1B6850
:1030340003F00203002BF0D0284B1B6823F0F802A6
:103044007B681B69DB00254913430B6015E0244BA7
:1030540000221A6001F008FD386108E001F004FD67
:1030640002463B69D31A022B01D9032393E11B4B7C
:103074001B6803F00203002BF0D17B681B6803F08C
:103084000803002B36D07B685B69002B16D0154BE8
:1030940001221A6001F0E8FC386108E001F0E4FC68
:1030A40002463B69D31A022B01D9032373E10B4B6C
:1030B4005B6F03F00203002BF0D01BE0094B0022EE
:1030C4001A6001F0D1FC38610EE001F0CDFC02463B
:1030D4003B69D31A022B07D903235CE10038024071
:1030E40000004742800E47428A4B5B6F03F00203A5
:1030F400002BEAD17B681B6803F00403002B00F06B
:1031040097800023FB75834B1B6C03F08053002BCB
:103114000FD10023BB607F4B1B6C7E4A43F080536E
:1031240013647C4B1B6C03F08053BB60BB680123AE
:10313400FB75794B1B6803F48073002B18D1764B15
:103144001B68754A43F48073136001F08DFC386189
:1031540008E001F089FC02463B69D31A022B01D92D
:10316400032318E16C4B1B6803F48073002BF0D02D
:103174007B689B68012B06D1664B1B6F654A43F045
:10318400010313671CE07B689B68052B0CD1614B22
:103194001B6F604A43F0040313675E4B1B6F5D4A69
:1031A40043F0010313670BE05A4B1B6F594A23F09A
:1031B40001031367574B1B6F564A23F0040313672D
:1031C4007B689B68002B15D001F04EFC38610AE047
:1031D40001F04AFC02463B69D31A41F28832934219
:1031E40001D90323D7E04B4B1B6F03F00203002BE1
:1031F400EED014E001F038FC38610AE001F034FC50
:1032040002463B69D31A41F28832934201D903231F
:10321400C1E0404B1B6F03F00203002BEED1FB7D9A
:10322400012B05D13B4B1B6C3A4A23F080531364AA
:103234007B689B69002B00F0AD80364B9B6803F0E4
:103244000C03082B60D07B689B69022B45D1334B60
:1032540000221A6001F008FC386108E001F004FC67
:1032640002463B69D31A022B01D9032393E0294B6D
:103274001B6803F00073002BF0D17B68DA697B686C
:103284001B6A1A437B685B6A9B011A437B689B6ACF
:103294005B08013B1B041A437B68DB6A1B061A4369
:1032A4007B681B6B1B071B4913434B601B4B0122A1
:1032B4001A6001F0D9FB386108E001F0D5FB024641
:1032C4003B69D31A022B01D9032364E0114B1B6819
:1032D40003F00073002BF0D05CE0104B00221A6066
:1032E40001F0C2FB386108E001F0BEFB02463B6915
:1032F400D31A022B01D903234DE0064B1B6803F0BC
:103304000073002BF0D145E07B689B69012B07D14A
:10331400012340E000380240007000406000474252
:103324001F4B5B68FB607B689B69012B30D0FB689B
:1033340003F480027B68DB699A4229D1FB6803F0BD
:103344003F027B681B6A9A4222D1FA6847F6C0732F
:1033540013407A68526A9201934219D1FB6803F4CC
:1033640040327B689B6A5B08013B1B049A420FD185
:10337400FB6803F070627B68DB6A1B069A4207D124
:10338400FB6803F0E0427B681B6B1B079A4201D089
:10339400012300E0002318461837BD4680BD00BF56
:1033A4000038024080B584B000AF786039607B6833
:1033B400002B01D10123CCE0684B1B6803F00F0301
:1033C4003A689A420CD9654B3A68D2B21A70634B88
:1033D4001B6803F00F033A689A4201D00123B8E056
:1033E4007B681B6803F00203002B20D07B681B68FA
:1033F40003F00403002B05D0594B9B68584A43F44F
:10340400E05393607B681B6803F00803002B05D02E
:10341400534B9B68524A43F460439360504B9B6800
:1034240023F0F0027B689B684D4913438B607B68F3
:103434001B6803F00103002B44D07B685B68012BFD
:1034440007D1474B1B6803F40033002B19D1012328
:103454007FE07B685B68022B03D07B685B68032B8F
:1034640007D13F4B1B6803F00073002B09D10123E4
:103474006FE03B4B1B6803F00203002B01D10123D7
:1034840067E0374B9B6823F003027B685B68344931
:1034940013438B6001F0E8FAF8600AE001F0E4FA03
:1034A4000246FB68D31A41F28832934201D90323BE
:1034B4004FE02B4B9B6803F00C027B685B689B001E
:1034C4009A42EBD1254B1B6803F00F033A689A42EA
:1034D4000CD2224B3A68D2B21A70204B1B6803F00C
:1034E4000F033A689A4201D0012332E07B681B68DB
:1034F40003F00403002B08D0194B9B6823F4E0521B
:103504007B68DB68164913438B607B681B6803F098
:103514000803002B09D0124B9B6823F460427B689C
:103524001B69DB000E4913438B60FFF76DFA0246FB
:103534000B4B9B681B0903F00F030A49CB5C22FA6F
:1035440003F3094A1360094B1B68184601F048FA53
:10355400002318461037BD4680BD00BF003C024022
:1035640000380240F44A000800000020080000204F
:1035740080B400AF034B1B681846BD465DF8047B5E
:10358400704700BF0000002080B500AFFFF7F0FFD8
:103594000246054B9B689B0A03F007030349CB5C77
:1035A40022FA03F3184680BD00380240044B000899
:1035B40080B500AFFFF7DCFF0246054B9B685B0B51
:1035C40003F007030349CB5C22FA03F3184680BDDA
:1035D40000380240044B000880B485B000AF786026
:1035E40039607B6893F83C30012B01D102235AE007
:1035F4007B68012283F83C207B68022283F83D200B
:103604007B681B685B68FB607B681B689B68BB60AE
:10361400FB6823F07003FB603B681B68FA68134384
:10362400FB607B681B68FA685A607B681B68214AE8
:10363400934222D07B681B68B3F1804F1DD07B6816
:103644001B681D4A934218D07B681B681B4A93422F
:1036540013D07B681B681A4A93420ED07B681B68A0
:10366400184A934209D07B681B68174A934204D0D6
:103674007B681B68154A93420CD1BB6823F0800316
:10368400BB603B685B68BA681343BB607B681B68BC
:10369400BA689A607B68012283F83D207B68002227
:1036A40083F83C20002318461437BD465DF8047B9C
:1036B400704700BF000001400004004000080040C3
:1036C400000C00400004014000400140001800408C
:1036D40080B485B000AF786039600023FB607B68FC
:1036E40093F83C30012B01D102233DE07B68012299
:1036F40083F83C20FB6823F0FF023B68DB6813433C
:10370400FB60FB6823F440723B689B681343FB60D7
:10371400FB6823F480623B685B681343FB60FB68CF
:1037240023F400623B681B681343FB60FB6823F4CB
:1037340080523B681B691343FB60FB6823F400520F
:103744003B685B691343FB60FB6823F480423B687E
:10375400DB691343FB607B681B68FA685A647B6807
:10376400002283F83C20002318461437BD465DF838
:10377400047B704780B483B000AF786000BF0C371F
:10378400BD465DF8047B704780B483B000AF7860B9
:1037940000BF0C37BD465DF8047B704780B582B02E
:1037A40000AF78607B68002B01D1012341E07B6886
:1037B40093F83D30DBB2002B06D17B68002283F8FE
:1037C4003C207868FDF74CFB7B68022283F83D209F
:1037D4007B681A687B6804331946104600F0A8FB1E
:1037E4007B68012283F846207B68012283F83E200F
:1037F4007B68012283F83F207B68012283F8402004
:103804007B68012283F841207B68012283F84220EF
:103814007B68012283F843207B68012283F84420DB
:103824007B68012283F845207B68012283F83D20D0
:10383400002318460837BD4680BD000080B485B01B
:1038440000AF78607B6893F83D30DBB2012B01D088
:1038540001234EE07B68022283F83D207B681B68CD
:10386400DA687B681B6842F00102DA607B681B68D7
:10387400234A934222D07B681B68B3F1804F1DD04A
:103884007B681B681F4A934218D07B681B681E4ADA
:10389400934213D07B681B681C4A93420ED07B680A
:1038A4001B681B4A934209D07B681B68194A9342E0
:1038B40004D07B681B68184A934211D17B681B684B
:1038C4009B6803F00703FB60FB68062B10D07B6842
:1038D4001B681A687B681B6842F001021A6007E0E3
:1038E4007B681B681A687B681B6842F001021A60D7
:1038F400002318461437BD465DF8047B704700BFAB
:10390400000001400004004000080040000C00409A
:1039140000040140004001400018004080B582B01E
:1039240000AF78607B68002B01D1012341E07B6804
:1039340093F83D30DBB2002B06D17B68002283F87C
:103944003C207868FDF756FA7B68022283F83D2014
:103954007B681A687B6804331946104600F0E8FA5D
:103964007B68012283F846207B68012283F83E208D
:103974007B68012283F83F207B68012283F8402082
:103984007B68012283F841207B68012283F842206E
:103994007B68012283F843207B68012283F844205A
:1039A4007B68012283F845207B68012283F83D204F
:1039B400002318460837BD4680BD000080B584B09A
:1039C40000AF786039603B68002B09D17B6893F8BD
:1039D4003E30DBB2012B14BF01230023DBB222E013
:1039E4003B68042B09D17B6893F83F30DBB2012B91
:1039F40014BF01230023DBB215E03B68082B09D177
:103A04007B6893F84030DBB2012B14BF0123002301
:103A1400DBB208E07B6893F84130DBB2012B14BFC2
:103A240001230023DBB2002B01D001237CE03B689F
:103A3400002B04D17B68022283F83E2013E03B680C
:103A4400042B04D17B68022283F83F200BE03B68FF
:103A5400082B04D17B68022283F8402003E07B68B2
:103A6400022283F841207B681B68012239681846CA
:103A740000F0AEFC7B681B682D4A934204D07B683F
:103A84001B682C4A934201D1012300E00023002B40
:103A940007D07B681B685A6C7B681B6842F4004241
:103AA4005A647B681B68224A934222D07B681B6855
:103AB400B3F1804F1DD07B681B681F4A934218D016
:103AC4007B681B681D4A934213D07B681B681C4AA1
:103AD40093420ED07B681B68164A934209D07B68D8
:103AE4001B68184A934204D07B681B68164A9342A9
:103AF40011D17B681B689B6803F00703FB60FB68BC
:103B0400062B10D07B681B681A687B681B6842F020
:103B140001021A6007E07B681B681A687B681B68EF
:103B240042F001021A60002318461037BD4680BDDA
:103B3400000001400004014000040040000800406F
:103B4400000C0040004001400018004080B582B0E5
:103B540000AF78607B681B681B6903F00203022BCB
:103B640022D17B681B68DB6803F00203022B1BD1A4
:103B74007B681B686FF002021A617B6801221A7766
:103B84007B681B689B6903F00303002B03D07868F0
:103B940000F0B0F905E0786800F0A2F9786800F068
:103BA400B3F97B6800221A777B681B681B6903F0F2
:103BB4000403042B22D17B681B68DB6803F0040335
:103BC400042B1BD17B681B686FF004021A617B68AD
:103BD40002221A777B681B689B6903F44073002BED
:103BE40003D0786800F086F905E0786800F078F989
:103BF400786800F089F97B6800221A777B681B6873
:103C04001B6903F00803082B22D17B681B68DB685F
:103C140003F00803082B1BD17B681B686FF00802B4
:103C24001A617B6804221A777B681B68DB6903F0DE
:103C34000303002B03D0786800F05CF905E0786892
:103C440000F04EF9786800F05FF97B6800221A777B
:103C54007B681B681B6903F01003102B22D17B685F
:103C64001B68DB6803F01003102B1BD17B681B68F7
:103C74006FF010021A617B6808221A777B681B6850
:103C8400DB6903F44073002B03D0786800F032F949
:103C940005E0786800F024F9786800F035F97B686D
:103CA40000221A777B681B681B6903F00103012B50
:103CB4000ED17B681B68DB6803F00103012B07D17D
:103CC4007B681B686FF001021A617868FCF79AFF41
:103CD4007B681B681B6903F08003802B0ED17B6813
:103CE4001B68DB6803F08003802B07D17B681B68AB
:103CF4006FF080021A617868FFF746FD7B681B68E5
:103D04001B6903F04003402B0ED17B681B68DB6802
:103D140003F04003402B07D17B681B686FF040021F
:103D24001A61786800F0FAF87B681B681B6903F075
:103D34002003202B0ED17B681B68DB6803F0200373
:103D4400202B07D17B681B686FF020021A6178680A
:103D5400FFF710FD00BF0837BD4680BD80B586B0B3
:103D640000AFF860B9607A600023FB75FB6893F8D4
:103D74003C30012B01D10223AEE0FB68012283F821
:103D84003C207B680C2B00F29F8001A252F823F0A8
:103D9400C93D0008CD3E0008CD3E0008CD3E0008D8
:103DA400093E0008CD3E0008CD3E0008CD3E000887
:103DB4004B3E0008CD3E0008CD3E0008CD3E000835
:103DC4008B3E0008FB681B68B968184600F050F980
:103DD400FB681B689A69FB681B6842F008029A61D9
:103DE400FB681B689A69FB681B6822F004029A61ED
:103DF400FB681B689969BB681A69FB681B680A43FE
:103E04009A6164E0FB681B68B968184600F0A0F981
:103E1400FB681B689A69FB681B6842F400629A613C
:103E2400FB681B689A69FB681B6822F480629A61CC
:103E3400FB681B689969BB681B691A02FB681B68ED
:103E44000A439A6143E0FB681B68B968184600F0AE
:103E5400F5F9FB681B68DA69FB681B6842F0080225
:103E6400DA61FB681B68DA69FB681B6822F00402EC
:103E7400DA61FB681B68D969BB681A69FB681B684F
:103E84000A43DA6123E0FB681B68B968184600F04E
:103E940049FAFB681B68DA69FB681B6842F4006234
:103EA400DA61FB681B68DA69FB681B6822F48062CC
:103EB400DA61FB681B68D969BB681B691A02FB6875
:103EC4001B680A43DA6102E00123FB7500BFFB684B
:103ED400002283F83C20FB7D18461837BD4680BD80
:103EE40080B483B000AF786000BF0C37BD465DF886
:103EF400047B704780B483B000AF786000BF0C3798
:103F0400BD465DF8047B704780B483B000AF786031
:103F140000BF0C37BD465DF8047B704780B483B0A6
:103F240000AF786000BF0C37BD465DF8047B704776
:103F340080B485B000AF786039607B681B68FB6033
:103F44007B68404A934213D07B68B3F1804F0FD013
:103F54007B683D4A93420BD07B683C4A934207D02E
:103F64007B683B4A934203D07B683A4A934208D128
:103F7400FB6823F07003FB603B685B68FA681343DB
:103F8400FB607B682F4A93422BD07B68B3F1804F50
:103F940027D07B682C4A934223D07B682B4A9342D8
:103FA4001FD07B682A4A93421BD07B68294A9342DC
:103FB40017D07B68284A934213D07B68274A9342E0
:103FC4000FD07B68264A93420BD07B68254A9342E4
:103FD40007D07B68244A934203D07B68234A9342E8
:103FE40008D1FB6823F44073FB603B68DB68FA6824
:103FF4001343FB60FB6823F080023B685B69134357
:10400400FB607B68FA681A603B689A687B68DA62CE
:104014003B681A687B689A627B680A4A934203D0B9
:104024007B680C4A934203D13B681A697B681A6324
:104034007B6801225A6100BF1437BD465DF8047BDA
:10404400704700BF00000140000400400008004029
:10405400000C0040000401400040014000440140C5
:104064000048014000180040001C004000200040AF
:1040740080B487B000AF786039607B681B6A23F036
:1040840001027B681A627B681B6A7B617B685B68E0
:104094003B617B689B69FB60FB6823F07003FB60FA
:1040A400FB6823F00303FB603B681B68FA68134357
:1040B400FB607B6923F002037B613B689B687A6940
:1040C40013437B617B68204A934203D07B681F4A79
:1040D40093420CD17B6923F008037B613B68DB6866
:1040E4007A6913437B617B6923F004037B617B68FA
:1040F400154A934203D07B68144A934211D13B6919
:1041040023F480733B613B6923F400733B613B6898
:104114005B693A6913433B613B689B693A691343A2
:104124003B617B683A695A607B68FA689A613B68CC
:104134005A687B685A637B687A691A6200BF1C37C5
:10414400BD465DF8047B7047000001400004014057
:1041540080B487B000AF786039607B681B6A23F055
:1041640010027B681A627B681B6A7B617B685B68F0
:104174003B617B689B69FB60FB6823F4E043FB6065
:10418400FB6823F44073FB603B681B681B02FA68FE
:104194001343FB607B6923F020037B613B689B68CE
:1041A4001B017A6913437B617B68224A934203D0E3
:1041B4007B68214A93420DD17B6923F080037B61A4
:1041C4003B68DB681B017A6913437B617B6923F0DD
:1041D40040037B617B68174A934203D07B68164A8D
:1041E400934213D13B6923F480633B613B6923F41D
:1041F40000633B613B685B699B003A6913433B6125
:104204003B689B699B003A6913433B617B683A694D
:104214005A607B68FA689A613B685A687B689A635B
:104224007B687A691A6200BF1C37BD465DF8047B5F
:10423400704700BF000001400004014080B487B013
:1042440000AF786039607B681B6A23F480727B68F6
:104254001A627B681B6A7B617B685B683B617B6875
:10426400DB69FB60FB6823F07003FB60FB6823F0F1
:104274000303FB603B681B68FA681343FB607B69BC
:1042840023F400737B613B689B681B027A691343C8
:104294007B617B68214A934203D07B68204A934226
:1042A4000DD17B6923F400637B613B68DB681B02EF
:1042B4007A6913437B617B6923F480637B617B6848
:1042C400164A934203D07B68154A934213D13B6943
:1042D40023F480533B613B6923F400533B613B6807
:1042E4005B691B013A6913433B613B689B691B0192
:1042F4003A6913433B617B683A695A607B68FA68A0
:10430400DA613B685A687B68DA637B687A691A62A7
:1043140000BF1C37BD465DF8047B704700000140B8
:104324000004014080B487B000AF786039607B68D6
:104334001B6A23F480527B681A627B681B6A3B61A8
:104344007B685B687B617B68DB69FB60FB6823F4EB
:10435400E043FB60FB6823F44073FB603B681B682D
:104364001B02FA681343FB603B6923F400533B616F
:104374003B689B681B033A6913433B617B68124AA1
:10438400934203D07B68114A934209D17B6923F499
:1043940080437B613B685B699B017A6913437B6162
:1043A4007B687A695A607B68FA68DA613B685A68A4
:1043B4007B681A647B683A691A6200BF1C37BD4681
:1043C4005DF8047B704700BF000001400004014019
:1043D40080B487B000AFF860B9607A60BB6803F05E
:1043E4001F03012202FA03F37B61FB681A6A7B69EB
:1043F400DB431A40FB681A62FB681A6ABB6803F065
:104404001F03796801FA03F31A43FB681A6200BFB9
:104414001C37BD465DF8047B704780B582B000AFA1
:1044240078607B68002B01D101233FE07B6893F81F
:104434003D30DBB2002B06D17B68002283F83C20A0
:104444007868FCF7CFFD7B68242283F83D207B68E5
:104454001B68DA687B681B6822F40052DA607868AB
:1044640000F028F87B681B681A697B681B6822F4D3
:1044740090421A617B681B685A697B681B6822F04A
:104484002A025A617B681B68DA687B681B6842F4FD
:104494000052DA607B6800221A647B68202283F869
:1044A4003D207B68202283F83E20002318460837ED
:1044B400BD4680BD2DE9B04FC0B000AFC7F8F400D1
:1044C400D7F8F4301B681B6923F44050D7F8F43054
:1044D400D968D7F8F4301A6840EA01031361D7F8B1
:1044E400F4309A68D7F8F4301B691A43D7F8F430DB
:1044F4005B691A43D7F8F430DB691343C7F8F83023
:10450400D7F8F4301B68DB6823F4164121F00C0162
:10451400D7F8F4301A68D7F8F8300B43D360D7F8DB
:10452400F4301B685B6923F44070D7F8F430996960
:10453400D7F8F4301A6840EA01035361D7F8F4302D
:104544001A688F4B9A4205D0D7F8F4301A688D4B0D
:104554009A4204D1FFF72CF8C7F8FC0003E0FFF7F8
:1045640013F8C7F8FC00D7F8F430DB69B3F5004F53
:1045740040F00C81D7F8FC300022C7F8E830C7F8C7
:10458400EC20D7E93A4522462B469118B9655B41A0
:10459400FB65D7E91623214612EB0108294643EBB4
:1045A40001094FF000024FF000034FEAC90343EA48
:1045B40058734FEAC80290469946234618EB030302
:1045C400C7F8E0302B4649EB0303C7F8E430D7F8CB
:1045D400F4305B680022C7F8D830C7F8DC20D7E98C
:1045E40036120B46DB183B65134642EB03037B652F
:1045F400D7E91423D7E93801FBF702FE02460B463C
:10460400614BA3FB02235B091C01D7F8FC30002299
:10461400C7F8D030C7F8D420D7E9348942464B468E
:104624009118B9645B41FB64D7E91223414612EB4C
:10463400010A494643EB010B4FF000024FF000031F
:104644004FEACB0343EA5A734FEACA0292469B46A7
:1046540043461AEB0303C7F8C8304B464BEB03033E
:10466400C7F8CC30D7F8F4305B680022C7F8C03004
:10467400C7F8C420D7E930120B46DB183B64134655
:1046840042EB03037B64D7E91023D7E93201FBF73C
:10469400B7FD02460B4611463B4BA3FB01235B09C6
:1046A400642202FB03F3CB1ADB0003F13202364B24
:1046B400A3FB02235B095B0003F4F8731C44D7F8E3
:1046C400FC300022C7F8B830C7F8BC20D7E92E89DF
:1046D40042464B469118B9635B41FB63D7E90E230D
:1046E40041465118396349464B417B634FF0000200
:1046F4004FF00003D7E90CAB5946CB00514643EACF
:1047040051735146CA0010461946034642469B1847
:10471400C7F8B0304B460A4642EB0303C7F8B4303F
:10472400D7F8F4305B680022C7F8A830C7F8AC208B
:10473400D7E92A120B46DB18BB62134642EB03038C
:10474400FB62D7E90A23D7E92C01FBF759FD02469E
:104754000B460D4BA3FB02135B09642101FB03F31E
:10476400D31ADB003233084AA2FB03235B0903F0AC
:104774000702D7F8F4301B6822449A6005E100BFB1
:1047840000100140001401401F85EB51D7F8FC30A4
:104794000022C7F8A030C7F8A420D7E928894246E8
:1047A4004B46911839625B417B62D7E90823414645
:1047B4005418494643EB01054FF000024FF0000343
:1047C400EB0043EA5473E20014461D464346E318E3
:1047D400C7F898304B4645EB0303C7F89C30D7F82D
:1047E400F4305B680022C7F89030C7F894204FF08B
:1047F40000024FF00003D7E9244529468B002146E7
:1048040043EA917321468A00D7E92601FBF7F8FCB5
:1048140002460B46604BA3FB02235B091C01D7F83D
:10482400FC300022C7F88830C7F88C20D7E92289E9
:1048340042464B469118B9615B41FB61D7E90623B7
:1048440041465118396149464B417B614FF00002A2
:104854004FF00003D7E904AB5946CB00514643EA75
:1048640051735146CA0010461946034642469B18E6
:10487400C7F880304B460A4642EB0303C7F884303E
:10488400D7F8F4305B680022BB67FA674FF0000288
:104894004FF00003D7E91E8949468B00414643EA9D
:1048A400917341468A00D7E92001FBF7A9FC02462F
:1048B4000B46394BA3FB02135B09642101FB03F391
:1048C400D31A1B013233344AA2FB03235B0903F0DE
:1048D400F0031C44D7F8FC3000223B677A67D7E921
:1048E4001C8942464B469118B9605B41FB60D7E98D
:1048F400022341465118396049464B417B604FF0D1
:1049040000024FF00003D7E900AB5946CB005146F3
:1049140043EA51735146CA001046194603464246BB
:104924009B18BB664B460A4642EB0303FB66D7F86B
:10493400F4305B6800223B667A664FF000024FF069
:104944000003D7E9188949468B00414643EA91732D
:1049540041468A00D7E91A01FBF752FC02460B468E
:104964000D4BA3FB02135B09642101FB03F3D31A70
:104974001B013233084AA2FB03235B0903F00F0235
:10498400D7F8F4301B6822449A6000BF07F580779B
:10499400BD46BDE8B08F00BF1F85EB5180B500AFA9
:1049A4000E4B1B680D4A43F4007313600B4B1B68DA
:1049B4000A4A43F480631360084B1B68074A43F4B4
:1049C400807313600320FDF713F9002000F008F84A
:1049D400FCF728F90023184680BD00BF003C0240C4
:1049E40080B582B000AF7860124B1A68124B1B7806
:1049F40019464FF47A73B3FBF1F3B2FBF3F31846A1
:104A0400FDF72BF90346002B01D001230EE07B6850
:104A14000F2B0AD8002279684FF0FF30FDF7F3F826
:104A2400064A7B681360002300E001231846083718
:104A3400BD4680BD000000200C00002008000020BE
:104A440080B400AF064B1B781A46064B1B68134410
:104A5400044A136000BFBD465DF8047B704700BF85
:104A64000C0000209C02002080B400AF034B1B68A4
:104A74001846BD465DF8047B704700BF9C020020C9
:104A840070B50D4D0D4C641BA4100026A64209D12F
:104A94000B4D0C4C00F020F8641BA4100026A64219
:104AA40005D170BD55F8043B98470136EEE755F83B
:104AB400043B98470136F2E71C4B00081C4B0008E6
:104AC4001C4B0008204B000802440346934200D1CB
:104AD400704703F8011BF9E7F8B500BFF8BC08BC40
:104AE4009E467047F8B500BFF8BC08BC9E467047A8
:104AF400000000000000000001020304060708098A
:104B0400000000000102030400061016000610163F
:084B140020B7FF7F0100000043
:044B1C00E9010008A3
:044B2000C5010008C3
:104B24000024F40001000000100000000100000057
:04000005080011D509
:00000001FF
